{
  "_format": "hh-sol-artifact-1",
  "contractName": "GuessRandomNum",
  "sourceName": "contracts/GuessRandomNum.sol",
  "abi": [
    {
      "inputs": [],
      "stateMutability": "payable",
      "type": "constructor"
    },
    {
      "inputs": [
        {
          "internalType": "uint256",
          "name": "_guess",
          "type": "uint256"
        }
      ],
      "name": "guess",
      "outputs": [],
      "stateMutability": "payable",
      "type": "function"
    }
  ],
  "bytecode": "0x6080604052610428806100136000396000f3fe60806040526004361061001e5760003560e01c80639189fec114610023575b600080fd5b61003d6004803603810190610038919061019e565b61003f565b005b67016345785d8a000034101561008a576040517f08c379a0000000000000000000000000000000000000000000000000000000008152600401610081906102bf565b60405180910390fd5b600060014361009991906102fb565b40426040516020016100ac92919061025e565b6040516020818303038152906040528051906020012060001c9050808214156101855760003373ffffffffffffffffffffffffffffffffffffffff16670de0b6b3a76400006040516100fd9061028a565b60006040518083038185875af1925050503d806000811461013a576040519150601f19603f3d011682016040523d82523d6000602084013e61013f565b606091505b5050905080610183576040517f08c379a000000000000000000000000000000000000000000000000000000000815260040161017a9061029f565b60405180910390fd5b505b5050565b600081359050610198816103db565b92915050565b6000602082840312156101b057600080fd5b60006101be84828501610189565b91505092915050565b6101d86101d38261032f565b610343565b82525050565b60006101eb6014836102ea565b91506101f682610386565b602082019050919050565b600061020e6012836102ea565b9150610219826103af565b602082019050919050565b60006102316000836102df565b915061023c826103d8565b600082019050919050565b61025861025382610339565b61034d565b82525050565b600061026a82856101c7565b60208201915061027a8284610247565b6020820191508190509392505050565b600061029582610224565b9150819050919050565b600060208201905081810360008301526102b8816101de565b9050919050565b600060208201905081810360008301526102d881610201565b9050919050565b600081905092915050565b600082825260208201905092915050565b600061030682610339565b915061031183610339565b92508282101561032457610323610357565b5b828203905092915050565b6000819050919050565b6000819050919050565b6000819050919050565b6000819050919050565b7f4e487b7100000000000000000000000000000000000000000000000000000000600052601160045260246000fd5b7f4661696c656420746f2073656e64204574686572000000000000000000000000600082015250565b7f4e6f7420656e6f756768207061796d656e740000000000000000000000000000600082015250565b50565b6103e481610339565b81146103ef57600080fd5b5056fea2646970667358221220081cbd9f13bb5ce31a1bd13cb59b4471a37e3196e52515a4f4441972e4bede9564736f6c63430008040033",
  "linkReferences": {},
  "deployedLinkReferences": {}
}