{
  "_format": "hh-sol-artifact-1",
  "contractName": "GuessPassword",
  "sourceName": "contracts/GuessPassword.sol",
  "abi": [
    {
      "inputs": [
        {
          "internalType": "uint256",
          "name": "_secretNum",
          "type": "uint256"
        }
      ],
      "stateMutability": "payable",
      "type": "constructor"
    },
    {
      "inputs": [
        {
          "internalType": "uint256",
          "name": "_guess",
          "type": "uint256"
        }
      ],
      "name": "guess",
      "outputs": [],
      "stateMutability": "payable",
      "type": "function"
    }
  ],
  "bytecode": "0x60806040526040516103b13803806103b183398181016040528101906100259190610047565b8060008190555050610091565b6000815190506100418161007a565b92915050565b60006020828403121561005957600080fd5b600061006784828501610032565b91505092915050565b6000819050919050565b61008381610070565b811461008e57600080fd5b50565b610311806100a06000396000f3fe60806040526004361061001e5760003560e01c80639189fec114610023575b600080fd5b61003d60048036038101906100389190610162565b61003f565b005b67016345785d8a000034101561008a576040517f08c379a000000000000000000000000000000000000000000000000000000000815260040161008190610229565b60405180910390fd5b60005481141561014a5760003373ffffffffffffffffffffffffffffffffffffffff16670de0b6b3a76400006040516100c2906101f4565b60006040518083038185875af1925050503d80600081146100ff576040519150601f19603f3d011682016040523d82523d6000602084013e610104565b606091505b5050905080610148576040517f08c379a000000000000000000000000000000000000000000000000000000000815260040161013f90610209565b60405180910390fd5b505b50565b60008135905061015c816102c4565b92915050565b60006020828403121561017457600080fd5b60006101828482850161014d565b91505092915050565b6000610198601483610254565b91506101a38261026f565b602082019050919050565b60006101bb601283610254565b91506101c682610298565b602082019050919050565b60006101de600083610249565b91506101e9826102c1565b600082019050919050565b60006101ff826101d1565b9150819050919050565b600060208201905081810360008301526102228161018b565b9050919050565b60006020820190508181036000830152610242816101ae565b9050919050565b600081905092915050565b600082825260208201905092915050565b6000819050919050565b7f4661696c656420746f2073656e64204574686572000000000000000000000000600082015250565b7f4e6f7420656e6f756768207061796d656e740000000000000000000000000000600082015250565b50565b6102cd81610265565b81146102d857600080fd5b5056fea2646970667358221220e85c1365cc92a0d15394838fbb1a36b621fa0c9dd4b95425e684c9fe49ae4b7e64736f6c63430008040033",
  "linkReferences": {},
  "deployedLinkReferences": {}
}