{
  "_format": "hh-sol-artifact-1",
  "contractName": "HypeCoin",
  "sourceName": "contracts/HypeCoin.sol",
  "abi": [
    {
      "inputs": [
        {
          "internalType": "string",
          "name": "_name",
          "type": "string"
        },
        {
          "internalType": "string",
          "name": "_symbol",
          "type": "string"
        }
      ],
      "stateMutability": "nonpayable",
      "type": "constructor"
    },
    {
      "anonymous": false,
      "inputs": [
        {
          "indexed": true,
          "internalType": "address",
          "name": "owner",
          "type": "address"
        },
        {
          "indexed": true,
          "internalType": "address",
          "name": "spender",
          "type": "address"
        },
        {
          "indexed": false,
          "internalType": "uint256",
          "name": "value",
          "type": "uint256"
        }
      ],
      "name": "Approval",
      "type": "event"
    },
    {
      "anonymous": false,
      "inputs": [
        {
          "indexed": true,
          "internalType": "address",
          "name": "from",
          "type": "address"
        },
        {
          "indexed": true,
          "internalType": "address",
          "name": "to",
          "type": "address"
        },
        {
          "indexed": false,
          "internalType": "uint256",
          "name": "value",
          "type": "uint256"
        }
      ],
      "name": "Transfer",
      "type": "event"
    },
    {
      "inputs": [],
      "name": "PRICE_PER_TOKEN",
      "outputs": [
        {
          "internalType": "uint256",
          "name": "",
          "type": "uint256"
        }
      ],
      "stateMutability": "view",
      "type": "function"
    },
    {
      "inputs": [],
      "name": "TOTAL_SUPPLY",
      "outputs": [
        {
          "internalType": "uint256",
          "name": "",
          "type": "uint256"
        }
      ],
      "stateMutability": "view",
      "type": "function"
    },
    {
      "inputs": [
        {
          "internalType": "address",
          "name": "owner",
          "type": "address"
        },
        {
          "internalType": "address",
          "name": "spender",
          "type": "address"
        }
      ],
      "name": "allowance",
      "outputs": [
        {
          "internalType": "uint256",
          "name": "",
          "type": "uint256"
        }
      ],
      "stateMutability": "view",
      "type": "function"
    },
    {
      "inputs": [
        {
          "internalType": "address",
          "name": "spender",
          "type": "address"
        },
        {
          "internalType": "uint256",
          "name": "amount",
          "type": "uint256"
        }
      ],
      "name": "approve",
      "outputs": [
        {
          "internalType": "bool",
          "name": "",
          "type": "bool"
        }
      ],
      "stateMutability": "nonpayable",
      "type": "function"
    },
    {
      "inputs": [
        {
          "internalType": "address",
          "name": "account",
          "type": "address"
        }
      ],
      "name": "balanceOf",
      "outputs": [
        {
          "internalType": "uint256",
          "name": "",
          "type": "uint256"
        }
      ],
      "stateMutability": "view",
      "type": "function"
    },
    {
      "inputs": [
        {
          "internalType": "uint256",
          "name": "_amount",
          "type": "uint256"
        }
      ],
      "name": "buy",
      "outputs": [],
      "stateMutability": "payable",
      "type": "function"
    },
    {
      "inputs": [],
      "name": "claim",
      "outputs": [],
      "stateMutability": "nonpayable",
      "type": "function"
    },
    {
      "inputs": [],
      "name": "decimals",
      "outputs": [
        {
          "internalType": "uint8",
          "name": "",
          "type": "uint8"
        }
      ],
      "stateMutability": "view",
      "type": "function"
    },
    {
      "inputs": [
        {
          "internalType": "address",
          "name": "spender",
          "type": "address"
        },
        {
          "internalType": "uint256",
          "name": "subtractedValue",
          "type": "uint256"
        }
      ],
      "name": "decreaseAllowance",
      "outputs": [
        {
          "internalType": "bool",
          "name": "",
          "type": "bool"
        }
      ],
      "stateMutability": "nonpayable",
      "type": "function"
    },
    {
      "inputs": [
        {
          "internalType": "address",
          "name": "spender",
          "type": "address"
        },
        {
          "internalType": "uint256",
          "name": "addedValue",
          "type": "uint256"
        }
      ],
      "name": "increaseAllowance",
      "outputs": [
        {
          "internalType": "bool",
          "name": "",
          "type": "bool"
        }
      ],
      "stateMutability": "nonpayable",
      "type": "function"
    },
    {
      "inputs": [],
      "name": "name",
      "outputs": [
        {
          "internalType": "string",
          "name": "",
          "type": "string"
        }
      ],
      "stateMutability": "view",
      "type": "function"
    },
    {
      "inputs": [],
      "name": "owner",
      "outputs": [
        {
          "internalType": "address",
          "name": "",
          "type": "address"
        }
      ],
      "stateMutability": "view",
      "type": "function"
    },
    {
      "inputs": [],
      "name": "symbol",
      "outputs": [
        {
          "internalType": "string",
          "name": "",
          "type": "string"
        }
      ],
      "stateMutability": "view",
      "type": "function"
    },
    {
      "inputs": [],
      "name": "totalSupply",
      "outputs": [
        {
          "internalType": "uint256",
          "name": "",
          "type": "uint256"
        }
      ],
      "stateMutability": "pure",
      "type": "function"
    },
    {
      "inputs": [
        {
          "internalType": "address",
          "name": "to",
          "type": "address"
        },
        {
          "internalType": "uint256",
          "name": "amount",
          "type": "uint256"
        }
      ],
      "name": "transfer",
      "outputs": [
        {
          "internalType": "bool",
          "name": "",
          "type": "bool"
        }
      ],
      "stateMutability": "nonpayable",
      "type": "function"
    },
    {
      "inputs": [
        {
          "internalType": "address",
          "name": "from",
          "type": "address"
        },
        {
          "internalType": "address",
          "name": "to",
          "type": "address"
        },
        {
          "internalType": "uint256",
          "name": "amount",
          "type": "uint256"
        }
      ],
      "name": "transferFrom",
      "outputs": [
        {
          "internalType": "bool",
          "name": "",
          "type": "bool"
        }
      ],
      "stateMutability": "nonpayable",
      "type": "function"
    }
  ],
  "bytecode": "0x60806040523480156200001157600080fd5b5060405162001e3538038062001e35833981810160405281019062000037919062000399565b818181600390805190602001906200005192919062000277565b5080600490805190602001906200006a92919062000277565b50505033600560006101000a81548173ffffffffffffffffffffffffffffffffffffffff021916908373ffffffffffffffffffffffffffffffffffffffff160217905550620000ec600560009054906101000a900473ffffffffffffffffffffffffffffffffffffffff1669d3c21bcecceda1000000620000f460201b60201c565b5050620006c3565b600073ffffffffffffffffffffffffffffffffffffffff168273ffffffffffffffffffffffffffffffffffffffff16141562000167576040517f08c379a00000000000000000000000000000000000000000000000000000000081526004016200015e9062000444565b60405180910390fd5b6200017b600083836200026d60201b60201c565b80600260008282546200018f9190620004f3565b92505081905550806000808473ffffffffffffffffffffffffffffffffffffffff1673ffffffffffffffffffffffffffffffffffffffff1681526020019081526020016000206000828254620001e69190620004f3565b925050819055508173ffffffffffffffffffffffffffffffffffffffff16600073ffffffffffffffffffffffffffffffffffffffff167fddf252ad1be2c89b69c2b068fc378daa952ba7f163c4a11628f55a4df523b3ef836040516200024d919062000466565b60405180910390a362000269600083836200027260201b60201c565b5050565b505050565b505050565b828054620002859062000590565b90600052602060002090601f016020900481019282620002a95760008555620002f5565b82601f10620002c457805160ff1916838001178555620002f5565b82800160010185558215620002f5579182015b82811115620002f4578251825591602001919060010190620002d7565b5b50905062000304919062000308565b5090565b5b808211156200032357600081600090555060010162000309565b5090565b60006200033e6200033884620004ac565b62000483565b9050828152602081018484840111156200035757600080fd5b620003648482856200055a565b509392505050565b600082601f8301126200037e57600080fd5b81516200039084826020860162000327565b91505092915050565b60008060408385031215620003ad57600080fd5b600083015167ffffffffffffffff811115620003c857600080fd5b620003d6858286016200036c565b925050602083015167ffffffffffffffff811115620003f457600080fd5b62000402858286016200036c565b9150509250929050565b60006200041b601f83620004e2565b915062000428826200069a565b602082019050919050565b6200043e8162000550565b82525050565b600060208201905081810360008301526200045f816200040c565b9050919050565b60006020820190506200047d600083018462000433565b92915050565b60006200048f620004a2565b90506200049d8282620005c6565b919050565b6000604051905090565b600067ffffffffffffffff821115620004ca57620004c96200065a565b5b620004d58262000689565b9050602081019050919050565b600082825260208201905092915050565b6000620005008262000550565b91506200050d8362000550565b9250827fffffffffffffffffffffffffffffffffffffffffffffffffffffffffffffffff03821115620005455762000544620005fc565b5b828201905092915050565b6000819050919050565b60005b838110156200057a5780820151818401526020810190506200055d565b838111156200058a576000848401525b50505050565b60006002820490506001821680620005a957607f821691505b60208210811415620005c057620005bf6200062b565b5b50919050565b620005d18262000689565b810181811067ffffffffffffffff82111715620005f357620005f26200065a565b5b80604052505050565b7f4e487b7100000000000000000000000000000000000000000000000000000000600052601160045260246000fd5b7f4e487b7100000000000000000000000000000000000000000000000000000000600052602260045260246000fd5b7f4e487b7100000000000000000000000000000000000000000000000000000000600052604160045260246000fd5b6000601f19601f8301169050919050565b7f45524332303a206d696e7420746f20746865207a65726f206164647265737300600082015250565b61176280620006d36000396000f3fe6080604052600436106100f35760003560e01c8063833b94991161008a578063a457c2d711610059578063a457c2d714610330578063a9059cbb1461036d578063d96a094a146103aa578063dd62ed3e146103c6576100f3565b8063833b9499146102845780638da5cb5b146102af578063902d55a5146102da57806395d89b4114610305576100f3565b8063313ce567116100c6578063313ce567146101c857806339509351146101f35780634e71d92d1461023057806370a0823114610247576100f3565b806306fdde03146100f8578063095ea7b31461012357806318160ddd1461016057806323b872dd1461018b575b600080fd5b34801561010457600080fd5b5061010d610403565b60405161011a919061113c565b60405180910390f35b34801561012f57600080fd5b5061014a60048036038101906101459190610ef1565b610495565b6040516101579190611121565b60405180910390f35b34801561016c57600080fd5b506101756104b8565b604051610182919061127e565b60405180910390f35b34801561019757600080fd5b506101b260048036038101906101ad9190610ea2565b6104ca565b6040516101bf9190611121565b60405180910390f35b3480156101d457600080fd5b506101dd6104f9565b6040516101ea9190611299565b60405180910390f35b3480156101ff57600080fd5b5061021a60048036038101906102159190610ef1565b610502565b6040516102279190611121565b60405180910390f35b34801561023c57600080fd5b50610245610539565b005b34801561025357600080fd5b5061026e60048036038101906102699190610e3d565b610612565b60405161027b919061127e565b60405180910390f35b34801561029057600080fd5b5061029961065a565b6040516102a6919061127e565b60405180910390f35b3480156102bb57600080fd5b506102c4610665565b6040516102d19190611106565b60405180910390f35b3480156102e657600080fd5b506102ef61068b565b6040516102fc919061127e565b60405180910390f35b34801561031157600080fd5b5061031a610699565b604051610327919061113c565b60405180910390f35b34801561033c57600080fd5b5061035760048036038101906103529190610ef1565b61072b565b6040516103649190611121565b60405180910390f35b34801561037957600080fd5b50610394600480360381019061038f9190610ef1565b6107a2565b6040516103a19190611121565b60405180910390f35b6103c460048036038101906103bf9190610f2d565b6107c5565b005b3480156103d257600080fd5b506103ed60048036038101906103e89190610e66565b6108a2565b6040516103fa919061127e565b60405180910390f35b60606003805461041290611408565b80601f016020809104026020016040519081016040528092919081815260200182805461043e90611408565b801561048b5780601f106104605761010080835404028352916020019161048b565b820191906000526020600020905b81548152906001019060200180831161046e57829003601f168201915b5050505050905090565b6000806104a0610929565b90506104ad818585610931565b600191505092915050565b600069d3c21bcecceda1000000905090565b6000806104d5610929565b90506104e2858285610afc565b6104ed858585610b88565b60019150509392505050565b60006012905090565b60008061050d610929565b905061052e81858561051f85896108a2565b61052991906112d0565b610931565b600191505092915050565b600560009054906101000a900473ffffffffffffffffffffffffffffffffffffffff1673ffffffffffffffffffffffffffffffffffffffff163373ffffffffffffffffffffffffffffffffffffffff16146105c9576040517f08c379a00000000000000000000000000000000000000000000000000000000081526004016105c09061123e565b60405180910390fd5b3373ffffffffffffffffffffffffffffffffffffffff166108fc479081150290604051600060405180830381858888f1935050505015801561060f573d6000803e3d6000fd5b50565b60008060008373ffffffffffffffffffffffffffffffffffffffff1673ffffffffffffffffffffffffffffffffffffffff168152602001908152602001600020549050919050565b662386f26fc1000081565b600560009054906101000a900473ffffffffffffffffffffffffffffffffffffffff1681565b69d3c21bcecceda100000081565b6060600480546106a890611408565b80601f01602080910402602001604051908101604052809291908181526020018280546106d490611408565b80156107215780601f106106f657610100808354040283529160200191610721565b820191906000526020600020905b81548152906001019060200180831161070457829003601f168201915b5050505050905090565b600080610736610929565b9050600061074482866108a2565b905083811015610789576040517f08c379a00000000000000000000000000000000000000000000000000000000081526004016107809061125e565b60405180910390fd5b6107968286868403610931565b60019250505092915050565b6000806107ad610929565b90506107ba818585610b88565b600191505092915050565b6000662386f26fc10000826107da9190611326565b905080341461081e576040517f08c379a0000000000000000000000000000000000000000000000000000000008152600401610815906111de565b60405180910390fd5b61085e600560009054906101000a900473ffffffffffffffffffffffffffffffffffffffff1630670de0b6b3a7640000856108599190611326565b610afc565b61089e600560009054906101000a900473ffffffffffffffffffffffffffffffffffffffff1633670de0b6b3a7640000856108999190611326565b610b88565b5050565b6000600160008473ffffffffffffffffffffffffffffffffffffffff1673ffffffffffffffffffffffffffffffffffffffff16815260200190815260200160002060008373ffffffffffffffffffffffffffffffffffffffff1673ffffffffffffffffffffffffffffffffffffffff16815260200190815260200160002054905092915050565b600033905090565b600073ffffffffffffffffffffffffffffffffffffffff168373ffffffffffffffffffffffffffffffffffffffff1614156109a1576040517f08c379a00000000000000000000000000000000000000000000000000000000081526004016109989061121e565b60405180910390fd5b600073ffffffffffffffffffffffffffffffffffffffff168273ffffffffffffffffffffffffffffffffffffffff161415610a11576040517f08c379a0000000000000000000000000000000000000000000000000000000008152600401610a089061117e565b60405180910390fd5b80600160008573ffffffffffffffffffffffffffffffffffffffff1673ffffffffffffffffffffffffffffffffffffffff16815260200190815260200160002060008473ffffffffffffffffffffffffffffffffffffffff1673ffffffffffffffffffffffffffffffffffffffff168152602001908152602001600020819055508173ffffffffffffffffffffffffffffffffffffffff168373ffffffffffffffffffffffffffffffffffffffff167f8c5be1e5ebec7d5bd14f71427d1e84f3dd0314c0f7b2291e5b200ac8c7c3b92583604051610aef919061127e565b60405180910390a3505050565b6000610b0884846108a2565b90507fffffffffffffffffffffffffffffffffffffffffffffffffffffffffffffffff8114610b825781811015610b74576040517f08c379a0000000000000000000000000000000000000000000000000000000008152600401610b6b9061119e565b60405180910390fd5b610b818484848403610931565b5b50505050565b600073ffffffffffffffffffffffffffffffffffffffff168373ffffffffffffffffffffffffffffffffffffffff161415610bf8576040517f08c379a0000000000000000000000000000000000000000000000000000000008152600401610bef906111fe565b60405180910390fd5b600073ffffffffffffffffffffffffffffffffffffffff168273ffffffffffffffffffffffffffffffffffffffff161415610c68576040517f08c379a0000000000000000000000000000000000000000000000000000000008152600401610c5f9061115e565b60405180910390fd5b610c73838383610e09565b60008060008573ffffffffffffffffffffffffffffffffffffffff1673ffffffffffffffffffffffffffffffffffffffff16815260200190815260200160002054905081811015610cf9576040517f08c379a0000000000000000000000000000000000000000000000000000000008152600401610cf0906111be565b60405180910390fd5b8181036000808673ffffffffffffffffffffffffffffffffffffffff1673ffffffffffffffffffffffffffffffffffffffff16815260200190815260200160002081905550816000808573ffffffffffffffffffffffffffffffffffffffff1673ffffffffffffffffffffffffffffffffffffffff1681526020019081526020016000206000828254610d8c91906112d0565b925050819055508273ffffffffffffffffffffffffffffffffffffffff168473ffffffffffffffffffffffffffffffffffffffff167fddf252ad1be2c89b69c2b068fc378daa952ba7f163c4a11628f55a4df523b3ef84604051610df0919061127e565b60405180910390a3610e03848484610e0e565b50505050565b505050565b505050565b600081359050610e22816116fe565b92915050565b600081359050610e3781611715565b92915050565b600060208284031215610e4f57600080fd5b6000610e5d84828501610e13565b91505092915050565b60008060408385031215610e7957600080fd5b6000610e8785828601610e13565b9250506020610e9885828601610e13565b9150509250929050565b600080600060608486031215610eb757600080fd5b6000610ec586828701610e13565b9350506020610ed686828701610e13565b9250506040610ee786828701610e28565b9150509250925092565b60008060408385031215610f0457600080fd5b6000610f1285828601610e13565b9250506020610f2385828601610e28565b9150509250929050565b600060208284031215610f3f57600080fd5b6000610f4d84828501610e28565b91505092915050565b610f5f81611380565b82525050565b610f6e81611392565b82525050565b6000610f7f826112b4565b610f8981856112bf565b9350610f998185602086016113d5565b610fa281611498565b840191505092915050565b6000610fba6023836112bf565b9150610fc5826114a9565b604082019050919050565b6000610fdd6022836112bf565b9150610fe8826114f8565b604082019050919050565b6000611000601d836112bf565b915061100b82611547565b602082019050919050565b60006110236026836112bf565b915061102e82611570565b604082019050919050565b6000611046600e836112bf565b9150611051826115bf565b602082019050919050565b60006110696025836112bf565b9150611074826115e8565b604082019050919050565b600061108c6024836112bf565b915061109782611637565b604082019050919050565b60006110af600c836112bf565b91506110ba82611686565b602082019050919050565b60006110d26025836112bf565b91506110dd826116af565b604082019050919050565b6110f1816113be565b82525050565b611100816113c8565b82525050565b600060208201905061111b6000830184610f56565b92915050565b60006020820190506111366000830184610f65565b92915050565b600060208201905081810360008301526111568184610f74565b905092915050565b6000602082019050818103600083015261117781610fad565b9050919050565b6000602082019050818103600083015261119781610fd0565b9050919050565b600060208201905081810360008301526111b781610ff3565b9050919050565b600060208201905081810360008301526111d781611016565b9050919050565b600060208201905081810360008301526111f781611039565b9050919050565b600060208201905081810360008301526112178161105c565b9050919050565b600060208201905081810360008301526112378161107f565b9050919050565b60006020820190508181036000830152611257816110a2565b9050919050565b60006020820190508181036000830152611277816110c5565b9050919050565b600060208201905061129360008301846110e8565b92915050565b60006020820190506112ae60008301846110f7565b92915050565b600081519050919050565b600082825260208201905092915050565b60006112db826113be565b91506112e6836113be565b9250827fffffffffffffffffffffffffffffffffffffffffffffffffffffffffffffffff0382111561131b5761131a61143a565b5b828201905092915050565b6000611331826113be565b915061133c836113be565b9250817fffffffffffffffffffffffffffffffffffffffffffffffffffffffffffffffff04831182151516156113755761137461143a565b5b828202905092915050565b600061138b8261139e565b9050919050565b60008115159050919050565b600073ffffffffffffffffffffffffffffffffffffffff82169050919050565b6000819050919050565b600060ff82169050919050565b60005b838110156113f35780820151818401526020810190506113d8565b83811115611402576000848401525b50505050565b6000600282049050600182168061142057607f821691505b6020821081141561143457611433611469565b5b50919050565b7f4e487b7100000000000000000000000000000000000000000000000000000000600052601160045260246000fd5b7f4e487b7100000000000000000000000000000000000000000000000000000000600052602260045260246000fd5b6000601f19601f8301169050919050565b7f45524332303a207472616e7366657220746f20746865207a65726f206164647260008201527f6573730000000000000000000000000000000000000000000000000000000000602082015250565b7f45524332303a20617070726f766520746f20746865207a65726f20616464726560008201527f7373000000000000000000000000000000000000000000000000000000000000602082015250565b7f45524332303a20696e73756666696369656e7420616c6c6f77616e6365000000600082015250565b7f45524332303a207472616e7366657220616d6f756e742065786365656473206260008201527f616c616e63650000000000000000000000000000000000000000000000000000602082015250565b7f4e6f7420656e6f75676820657468000000000000000000000000000000000000600082015250565b7f45524332303a207472616e736665722066726f6d20746865207a65726f20616460008201527f6472657373000000000000000000000000000000000000000000000000000000602082015250565b7f45524332303a20617070726f76652066726f6d20746865207a65726f2061646460008201527f7265737300000000000000000000000000000000000000000000000000000000602082015250565b7f6e6f7420616e206f776e65720000000000000000000000000000000000000000600082015250565b7f45524332303a2064656372656173656420616c6c6f77616e63652062656c6f7760008201527f207a65726f000000000000000000000000000000000000000000000000000000602082015250565b61170781611380565b811461171257600080fd5b50565b61171e816113be565b811461172957600080fd5b5056fea26469706673582212208a590889c369be65cfa5005eedc934da5136dcd67d61d8beb8d9f1157f2674fd64736f6c63430008040033",
  "linkReferences": {},
  "deployedLinkReferences": {}
}